{
  "_format": "hh-sol-artifact-1",
  "contractName": "Ownable",
  "sourceName": "contracts/ownership/Ownable.sol",
  "abi": [
    {
      "inputs": [],
      "stateMutability": "nonpayable",
      "type": "constructor"
    },
    {
      "inputs": [],
      "name": "isOwner",
      "outputs": [
        {
          "internalType": "bool",
          "name": "",
          "type": "bool"
        }
      ],
      "stateMutability": "view",
      "type": "function"
    },
    {
      "inputs": [],
      "name": "owner",
      "outputs": [
        {
          "internalType": "address",
          "name": "",
          "type": "address"
        }
      ],
      "stateMutability": "view",
      "type": "function"
    }
  ],
  "bytecode": "0x608060405234801561001057600080fd5b50336000806101000a81548173ffffffffffffffffffffffffffffffffffffffff021916908373ffffffffffffffffffffffffffffffffffffffff1602179055506101bf806100606000396000f3fe608060405234801561001057600080fd5b50600436106100365760003560e01c80638da5cb5b1461003b5780638f32d59b14610059575b600080fd5b610043610077565b6040516100509190610115565b60405180910390f35b6100616100a0565b60405161006e9190610130565b60405180910390f35b60008060009054906101000a900473ffffffffffffffffffffffffffffffffffffffff16905090565b60008060009054906101000a900473ffffffffffffffffffffffffffffffffffffffff1673ffffffffffffffffffffffffffffffffffffffff163373ffffffffffffffffffffffffffffffffffffffff1614905090565b6101008161014b565b82525050565b61010f8161015d565b82525050565b600060208201905061012a60008301846100f7565b92915050565b60006020820190506101456000830184610106565b92915050565b600061015682610169565b9050919050565b60008115159050919050565b600073ffffffffffffffffffffffffffffffffffffffff8216905091905056fea26469706673582212206b9b0c40dc2143dcfd3dd8ba710acb350636e0d3a51ee88ad7a594f210eec34664736f6c63430008000033",
  "linkReferences": {},
  "deployedLinkReferences": {}
}