{
  "_format": "hh-sol-artifact-1",
  "contractName": "Pausable",
  "sourceName": "contracts/lifecycle/Pausable.sol",
  "abi": [
    {
      "inputs": [],
      "stateMutability": "nonpayable",
      "type": "constructor"
    },
    {
      "anonymous": false,
      "inputs": [
        {
          "indexed": false,
          "internalType": "address",
          "name": "account",
          "type": "address"
        }
      ],
      "name": "Paused",
      "type": "event"
    },
    {
      "anonymous": false,
      "inputs": [
        {
          "indexed": false,
          "internalType": "address",
          "name": "account",
          "type": "address"
        }
      ],
      "name": "Unpaused",
      "type": "event"
    },
    {
      "inputs": [],
      "name": "isOwner",
      "outputs": [
        {
          "internalType": "bool",
          "name": "",
          "type": "bool"
        }
      ],
      "stateMutability": "view",
      "type": "function"
    },
    {
      "inputs": [],
      "name": "owner",
      "outputs": [
        {
          "internalType": "address",
          "name": "",
          "type": "address"
        }
      ],
      "stateMutability": "view",
      "type": "function"
    },
    {
      "inputs": [],
      "name": "pause",
      "outputs": [],
      "stateMutability": "nonpayable",
      "type": "function"
    },
    {
      "inputs": [],
      "name": "paused",
      "outputs": [
        {
          "internalType": "bool",
          "name": "",
          "type": "bool"
        }
      ],
      "stateMutability": "view",
      "type": "function"
    },
    {
      "inputs": [],
      "name": "unpause",
      "outputs": [],
      "stateMutability": "nonpayable",
      "type": "function"
    }
  ],
  "bytecode": "0x608060405234801561001057600080fd5b50336000806101000a81548173ffffffffffffffffffffffffffffffffffffffff021916908373ffffffffffffffffffffffffffffffffffffffff16021790555061052d806100606000396000f3fe608060405234801561001057600080fd5b50600436106100575760003560e01c80633f4ba83a1461005c5780635c975abb146100665780638456cb59146100845780638da5cb5b1461008e5780638f32d59b146100ac575b600080fd5b6100646100ca565b005b61006e6101b3565b60405161007b919061042d565b60405180910390f35b61008c6101c9565b005b6100966102b4565b6040516100a39190610412565b60405180910390f35b6100b46102dd565b6040516100c1919061042d565b60405180910390f35b6100d26102dd565b610111576040517f08c379a000000000000000000000000000000000000000000000000000000000815260040161010890610488565b60405180910390fd5b600060149054906101000a900460ff16610160576040517f08c379a000000000000000000000000000000000000000000000000000000000815260040161015790610448565b60405180910390fd5b60008060146101000a81548160ff0219169083151502179055507f5db9ee0a495bf2e6ff9c91a7834c1ba4fdd244a5e8aa4e537bd38aeae4b073aa336040516101a99190610412565b60405180910390a1565b60008060149054906101000a900460ff16905090565b6101d16102dd565b610210576040517f08c379a000000000000000000000000000000000000000000000000000000000815260040161020790610488565b60405180910390fd5b600060149054906101000a900460ff1615610260576040517f08c379a000000000000000000000000000000000000000000000000000000000815260040161025790610468565b60405180910390fd5b6001600060146101000a81548160ff0219169083151502179055507f62e78cea01bee320cd4e420270b5ea74000d11b0c9f74754ebdbfc544b05a258336040516102aa9190610412565b60405180910390a1565b60008060009054906101000a900473ffffffffffffffffffffffffffffffffffffffff16905090565b60008060009054906101000a900473ffffffffffffffffffffffffffffffffffffffff1673ffffffffffffffffffffffffffffffffffffffff163373ffffffffffffffffffffffffffffffffffffffff1614905090565b61033d816104b9565b82525050565b61034c816104cb565b82525050565b600061035f6014836104a8565b91507f5061757361626c653a206e6f74207061757365640000000000000000000000006000830152602082019050919050565b600061039f6010836104a8565b91507f5061757361626c653a20706175736564000000000000000000000000000000006000830152602082019050919050565b60006103df6020836104a8565b91507f4f776e61626c653a2063616c6c6572206973206e6f7420746865206f776e65726000830152602082019050919050565b60006020820190506104276000830184610334565b92915050565b60006020820190506104426000830184610343565b92915050565b6000602082019050818103600083015261046181610352565b9050919050565b6000602082019050818103600083015261048181610392565b9050919050565b600060208201905081810360008301526104a1816103d2565b9050919050565b600082825260208201905092915050565b60006104c4826104d7565b9050919050565b60008115159050919050565b600073ffffffffffffffffffffffffffffffffffffffff8216905091905056fea264697066735822122000566d57c2d7c3cac3f327017bc8895d225a6a16ec3e94e86480bf43eecf0f2964736f6c63430008000033",
  "linkReferences": {},
  "deployedLinkReferences": {}
}